{
  "contractName": "Voting",
  "abi": [
    {
      "constant": true,
      "inputs": [],
      "name": "candidatesCount",
      "outputs": [
        {
          "name": "",
          "type": "uint256"
        }
      ],
      "payable": false,
      "stateMutability": "view",
      "type": "function"
    },
    {
      "constant": true,
      "inputs": [
        {
          "name": "",
          "type": "uint256"
        }
      ],
      "name": "candidates",
      "outputs": [
        {
          "name": "id",
          "type": "uint256"
        },
        {
          "name": "name",
          "type": "string"
        },
        {
          "name": "voteCount",
          "type": "uint256"
        }
      ],
      "payable": false,
      "stateMutability": "view",
      "type": "function"
    },
    {
      "constant": true,
      "inputs": [
        {
          "name": "",
          "type": "address"
        }
      ],
      "name": "voters",
      "outputs": [
        {
          "name": "",
          "type": "bool"
        }
      ],
      "payable": false,
      "stateMutability": "view",
      "type": "function"
    },
    {
      "inputs": [],
      "payable": false,
      "stateMutability": "nonpayable",
      "type": "constructor"
    },
    {
      "anonymous": false,
      "inputs": [
        {
          "indexed": true,
          "name": "_candidateId",
          "type": "uint256"
        }
      ],
      "name": "votedEvent",
      "type": "event"
    },
    {
      "constant": false,
      "inputs": [
        {
          "name": "_name",
          "type": "string"
        }
      ],
      "name": "addCandidate",
      "outputs": [],
      "payable": false,
      "stateMutability": "nonpayable",
      "type": "function"
    },
    {
      "constant": false,
      "inputs": [
        {
          "name": "_candidateId",
          "type": "uint256"
        }
      ],
      "name": "vote",
      "outputs": [],
      "payable": false,
      "stateMutability": "nonpayable",
      "type": "function"
    }
  ],
  "bytecode": "0x608060405234801561001057600080fd5b5061005e6040805190810160405280600581526020017f6861696e76000000000000000000000000000000000000000000000000000000815250610063640100000000026401000000009004565b610184565b6002600081548092919060010191905055506060604051908101604052806002548152602001828152602001600081525060008060025481526020019081526020016000206000820151816000015560208201518160010190805190602001906100ce9291906100df565b506040820151816002015590505050565b828054600181600116156101000203166002900490600052602060002090601f016020900481019282601f1061012057805160ff191683800117855561014e565b8280016001018555821561014e579182015b8281111561014d578251825591602001919060010190610132565b5b50905061015b919061015f565b5090565b61018191905b8082111561017d576000816000905550600101610165565b5090565b90565b610598806101936000396000f30060806040526004361061006d576000357c0100000000000000000000000000000000000000000000000000000000900463ffffffff1680630121b93f146100725780632d35a8a21461009f5780633477ee2e146100ca578063462e91ec1461017e578063a3ec138d146101e7575b600080fd5b34801561007e57600080fd5b5061009d60048036038101908080359060200190929190505050610242565b005b3480156100ab57600080fd5b506100b4610363565b6040518082815260200191505060405180910390f35b3480156100d657600080fd5b506100f560048036038101908080359060200190929190505050610369565b6040518084815260200180602001838152602001828103825284818151815260200191508051906020019080838360005b83811015610141578082015181840152602081019050610126565b50505050905090810190601f16801561016e5780820380516001836020036101000a031916815260200191505b5094505050505060405180910390f35b34801561018a57600080fd5b506101e5600480360381019080803590602001908201803590602001908080601f016020809104026020016040519081016040528093929190818152602001838380828437820191505050505050919291929050505061042b565b005b3480156101f357600080fd5b50610228600480360381019080803573ffffffffffffffffffffffffffffffffffffffff1690602001909291905050506104a7565b604051808215151515815260200191505060405180910390f35b600160003373ffffffffffffffffffffffffffffffffffffffff1673ffffffffffffffffffffffffffffffffffffffff16815260200190815260200160002060009054906101000a900460ff1615151561029b57600080fd5b6000811180156102ac575060025481105b15156102b757600080fd5b60018060003373ffffffffffffffffffffffffffffffffffffffff1673ffffffffffffffffffffffffffffffffffffffff16815260200190815260200160002060006101000a81548160ff02191690831515021790555060008082815260200190815260200160002060020160008154809291906001019190505550807ffff3c900d938d21d0990d786e819f29b8d05c1ef587b462b939609625b684b1660405160405180910390a250565b60025481565b6000602052806000526040600020600091509050806000015490806001018054600181600116156101000203166002900480601f01602080910402602001604051908101604052809291908181526020018280546001816001161561010002031660029004801561041b5780601f106103f05761010080835404028352916020019161041b565b820191906000526020600020905b8154815290600101906020018083116103fe57829003601f168201915b5050505050908060020154905083565b6002600081548092919060010191905055506060604051908101604052806002548152602001828152602001600081525060008060025481526020019081526020016000206000820151816000015560208201518160010190805190602001906104969291906104c7565b506040820151816002015590505050565b60016020528060005260406000206000915054906101000a900460ff1681565b828054600181600116156101000203166002900490600052602060002090601f016020900481019282601f1061050857805160ff1916838001178555610536565b82800160010185558215610536579182015b8281111561053557825182559160200191906001019061051a565b5b5090506105439190610547565b5090565b61056991905b8082111561056557600081600090555060010161054d565b5090565b905600a165627a7a72305820a7b4fe47937b9eb89bc348fcc2aedfabce54632a50db5e210a164bb7a24159520029",
  "source": "pragma solidity ^0.4.24;\n\ncontract Voting {\n     \n    // Model a candidate\n    struct Candidate {\n        uint id;\n        string name;\n        uint voteCount;\n    }\n\n    // Read/write Candidates\n    mapping (uint => Candidate) public candidates;\n\n    // Store accounts that have voted\n    mapping(address => bool) public voters;\n\n    // Store Candidate Count\n    uint public candidatesCount;\n\n    event votedEvent(\n        uint indexed _candidateId\n    );\n\n    // Contructor\n    constructor () public {\n        addCandidate(\"hainv\");\n    }\n\n    // Add Candidate\n    function addCandidate(string _name) public {\n        candidatesCount ++;\n        candidates[candidatesCount] = Candidate(candidatesCount,_name, 0);\n    }\n\n    // Vote\n    function vote(uint _candidateId) public {\n        // require that they haven't voted before\n        require(!voters[msg.sender]);\n\n        // require a valid candidate\n        require(_candidateId > 0 && _candidateId < candidatesCount);\n\n        voters[msg.sender] = true;\n\n        // update candidate vote count\n        candidates[_candidateId].voteCount ++;\n\n        // trigger voted event\n        emit votedEvent(_candidateId);\n    }\n}",
  "sourcePath": "/home/user1/Project/Voting-Dapp/contracts/contracts/Voting.sol",
  "compiler": {
    "name": "solc",
    "version": "0.4.24+commit.e67f0147.Emscripten.clang"
  },
  "schemaVersion": "2.0.1",
  "updatedAt": "2018-09-06T08:52:37.229Z"
}